{
  "contractName": "WMATIC",
  "abi": [
    {
      "anonymous": false,
      "inputs": [
        {
          "indexed": true,
          "internalType": "address",
          "name": "src",
          "type": "address"
        },
        {
          "indexed": true,
          "internalType": "address",
          "name": "guy",
          "type": "address"
        },
        {
          "indexed": false,
          "internalType": "uint256",
          "name": "wad",
          "type": "uint256"
        }
      ],
      "name": "Approval",
      "type": "event"
    },
    {
      "anonymous": false,
      "inputs": [
        {
          "indexed": true,
          "internalType": "address",
          "name": "dst",
          "type": "address"
        },
        {
          "indexed": false,
          "internalType": "uint256",
          "name": "wad",
          "type": "uint256"
        }
      ],
      "name": "Deposit",
      "type": "event"
    },
    {
      "anonymous": false,
      "inputs": [
        {
          "indexed": true,
          "internalType": "address",
          "name": "src",
          "type": "address"
        },
        {
          "indexed": true,
          "internalType": "address",
          "name": "dst",
          "type": "address"
        },
        {
          "indexed": false,
          "internalType": "uint256",
          "name": "wad",
          "type": "uint256"
        }
      ],
      "name": "Transfer",
      "type": "event"
    },
    {
      "anonymous": false,
      "inputs": [
        {
          "indexed": true,
          "internalType": "address",
          "name": "src",
          "type": "address"
        },
        {
          "indexed": false,
          "internalType": "uint256",
          "name": "wad",
          "type": "uint256"
        }
      ],
      "name": "Withdrawal",
      "type": "event"
    },
    {
      "inputs": [
        {
          "internalType": "address",
          "name": "",
          "type": "address"
        },
        {
          "internalType": "address",
          "name": "",
          "type": "address"
        }
      ],
      "name": "allowance",
      "outputs": [
        {
          "internalType": "uint256",
          "name": "",
          "type": "uint256"
        }
      ],
      "stateMutability": "view",
      "type": "function"
    },
    {
      "inputs": [
        {
          "internalType": "address",
          "name": "",
          "type": "address"
        }
      ],
      "name": "balanceOf",
      "outputs": [
        {
          "internalType": "uint256",
          "name": "",
          "type": "uint256"
        }
      ],
      "stateMutability": "view",
      "type": "function"
    },
    {
      "inputs": [],
      "name": "decimals",
      "outputs": [
        {
          "internalType": "uint8",
          "name": "",
          "type": "uint8"
        }
      ],
      "stateMutability": "view",
      "type": "function"
    },
    {
      "inputs": [],
      "name": "name",
      "outputs": [
        {
          "internalType": "string",
          "name": "",
          "type": "string"
        }
      ],
      "stateMutability": "view",
      "type": "function"
    },
    {
      "inputs": [],
      "name": "symbol",
      "outputs": [
        {
          "internalType": "string",
          "name": "",
          "type": "string"
        }
      ],
      "stateMutability": "view",
      "type": "function"
    },
    {
      "stateMutability": "payable",
      "type": "receive"
    },
    {
      "inputs": [],
      "name": "deposit",
      "outputs": [],
      "stateMutability": "payable",
      "type": "function"
    },
    {
      "inputs": [
        {
          "internalType": "uint256",
          "name": "wad",
          "type": "uint256"
        }
      ],
      "name": "withdraw",
      "outputs": [],
      "stateMutability": "nonpayable",
      "type": "function"
    },
    {
      "inputs": [],
      "name": "totalSupply",
      "outputs": [
        {
          "internalType": "uint256",
          "name": "",
          "type": "uint256"
        }
      ],
      "stateMutability": "view",
      "type": "function"
    },
    {
      "inputs": [
        {
          "internalType": "address",
          "name": "guy",
          "type": "address"
        },
        {
          "internalType": "uint256",
          "name": "wad",
          "type": "uint256"
        }
      ],
      "name": "approve",
      "outputs": [
        {
          "internalType": "bool",
          "name": "",
          "type": "bool"
        }
      ],
      "stateMutability": "nonpayable",
      "type": "function"
    },
    {
      "inputs": [
        {
          "internalType": "address",
          "name": "dst",
          "type": "address"
        },
        {
          "internalType": "uint256",
          "name": "wad",
          "type": "uint256"
        }
      ],
      "name": "transfer",
      "outputs": [
        {
          "internalType": "bool",
          "name": "",
          "type": "bool"
        }
      ],
      "stateMutability": "nonpayable",
      "type": "function"
    },
    {
      "inputs": [
        {
          "internalType": "address",
          "name": "src",
          "type": "address"
        },
        {
          "internalType": "address",
          "name": "dst",
          "type": "address"
        },
        {
          "internalType": "uint256",
          "name": "wad",
          "type": "uint256"
        }
      ],
      "name": "transferFrom",
      "outputs": [
        {
          "internalType": "bool",
          "name": "",
          "type": "bool"
        }
      ],
      "stateMutability": "nonpayable",
      "type": "function"
    }
  ],
  "bytecode": "0x60c0604052600d60808190526c57726170706564204d6174696360981b60a090815261002e916000919061007c565b5060408051808201909152600680825265574d4154494360d01b602090920191825261005c9160019161007c565b506002805460ff1916601217905534801561007657600080fd5b5061010f565b828054600181600116156101000203166002900490600052602060002090601f016020900481019282601f106100bd57805160ff19168380011785556100ea565b828001600101855582156100ea579182015b828111156100ea5782518255916020019190600101906100cf565b506100f69291506100fa565b5090565b5b808211156100f657600081556001016100fb565b6108108061011e6000396000f3fe6080604052600436106100c05760003560e01c8063313ce56711610074578063a9059cbb1161004e578063a9059cbb146102d9578063d0e30db01461031f578063dd62ed3e14610327576100cf565b8063313ce5671461025957806370a082311461028457806395d89b41146102c4576100cf565b806318160ddd116100a557806318160ddd146101b857806323b872dd146101df5780632e1a7d4d1461022f576100cf565b806306fdde03146100d4578063095ea7b31461015e576100cf565b366100cf576100cd61036f565b005b600080fd5b3480156100e057600080fd5b506100e96103be565b6040805160208082528351818301528351919283929083019185019080838360005b8381101561012357818101518382015260200161010b565b50505050905090810190601f1680156101505780820380516001836020036101000a031916815260200191505b509250505060405180910390f35b34801561016a57600080fd5b506101a46004803603604081101561018157600080fd5b5073ffffffffffffffffffffffffffffffffffffffff813516906020013561046a565b604080519115158252519081900360200190f35b3480156101c457600080fd5b506101cd6104dd565b60408051918252519081900360200190f35b3480156101eb57600080fd5b506101a46004803603606081101561020257600080fd5b5073ffffffffffffffffffffffffffffffffffffffff8135811691602081013590911690604001356104e1565b34801561023b57600080fd5b506100cd6004803603602081101561025257600080fd5b5035610681565b34801561026557600080fd5b5061026e610716565b6040805160ff9092168252519081900360200190f35b34801561029057600080fd5b506101cd600480360360208110156102a757600080fd5b503573ffffffffffffffffffffffffffffffffffffffff1661071f565b3480156102d057600080fd5b506100e9610731565b3480156102e557600080fd5b506101a4600480360360408110156102fc57600080fd5b5073ffffffffffffffffffffffffffffffffffffffff81351690602001356107a9565b6100cd61036f565b34801561033357600080fd5b506101cd6004803603604081101561034a57600080fd5b5073ffffffffffffffffffffffffffffffffffffffff813581169160200135166107bd565b33600081815260036020908152604091829020805434908101909155825190815291517fe1fffcc4923d04b559f4d29a8bfc6cda04eb5b0d3c460751c2402c5c5cc9109c9281900390910190a2565b6000805460408051602060026001851615610100027fffffffffffffffffffffffffffffffffffffffffffffffffffffffffffffffff0190941693909304601f810184900484028201840190925281815292918301828280156104625780601f1061043757610100808354040283529160200191610462565b820191906000526020600020905b81548152906001019060200180831161044557829003601f168201915b505050505081565b33600081815260046020908152604080832073ffffffffffffffffffffffffffffffffffffffff8716808552908352818420869055815186815291519394909390927f8c5be1e5ebec7d5bd14f71427d1e84f3dd0314c0f7b2291e5b200ac8c7c3b925928290030190a350600192915050565b4790565b73ffffffffffffffffffffffffffffffffffffffff831660009081526003602052604081205482111561051357600080fd5b73ffffffffffffffffffffffffffffffffffffffff84163314801590610589575073ffffffffffffffffffffffffffffffffffffffff841660009081526004602090815260408083203384529091529020547fffffffffffffffffffffffffffffffffffffffffffffffffffffffffffffffff14155b156106035773ffffffffffffffffffffffffffffffffffffffff841660009081526004602090815260408083203384529091529020548211156105cb57600080fd5b73ffffffffffffffffffffffffffffffffffffffff841660009081526004602090815260408083203384529091529020805483900390555b73ffffffffffffffffffffffffffffffffffffffff808516600081815260036020908152604080832080548890039055938716808352918490208054870190558351868152935191937fddf252ad1be2c89b69c2b068fc378daa952ba7f163c4a11628f55a4df523b3ef929081900390910190a35060019392505050565b3360009081526003602052604090205481111561069d57600080fd5b33600081815260036020526040808220805485900390555183156108fc0291849190818181858888f193505050501580156106dc573d6000803e3d6000fd5b5060408051828152905133917f7fcf532c15f0a6db0bd6d0e038bea71d30d808c7d98cb3bf7268a95bf5081b65919081900360200190a250565b60025460ff1681565b60036020526000908152604090205481565b60018054604080516020600284861615610100027fffffffffffffffffffffffffffffffffffffffffffffffffffffffffffffffff0190941693909304601f810184900484028201840190925281815292918301828280156104625780601f1061043757610100808354040283529160200191610462565b60006107b63384846104e1565b9392505050565b60046020908152600092835260408084209091529082529020548156fea2646970667358221220ad426fdb8ddc6cf4c44802d9d555431425b6238d41913e842fac72f0f4c0759464736f6c634300060c0033",
  "immutableReferences": {},
  "source": "\npragma solidity ^0.6.12;\n\ncontract WMATIC {\n    string public name     = \"Wrapped Matic\";\n    string public symbol   = \"WMATIC\";\n    uint8  public decimals = 18;\n\n    event  Approval(address indexed src, address indexed guy, uint wad);\n    event  Transfer(address indexed src, address indexed dst, uint wad);\n    event  Deposit(address indexed dst, uint wad);\n    event  Withdrawal(address indexed src, uint wad);\n\n    mapping (address => uint)                       public  balanceOf;\n    mapping (address => mapping (address => uint))  public  allowance;\n\n    receive() external payable {\n        deposit();\n    }\n    function deposit() public payable {\n        balanceOf[msg.sender] += msg.value;\n        emit Deposit(msg.sender, msg.value);\n    }\n    function withdraw(uint wad) public {\n        require(balanceOf[msg.sender] >= wad);\n        balanceOf[msg.sender] -= wad;\n        msg.sender.transfer(wad);\n        emit Withdrawal(msg.sender, wad);\n    }\n\n    function totalSupply() public view returns (uint) {\n        return address(this).balance;\n    }\n\n    function approve(address guy, uint wad) public returns (bool) {\n        allowance[msg.sender][guy] = wad;\n        emit Approval(msg.sender, guy, wad);\n        return true;\n    }\n\n    function transfer(address dst, uint wad) public returns (bool) {\n        return transferFrom(msg.sender, dst, wad);\n    }\n\n    function transferFrom(address src, address dst, uint wad)\n        public\n        returns (bool)\n    {\n        require(balanceOf[src] >= wad);\n\n        if (src != msg.sender && allowance[src][msg.sender] != uint(-1)) {\n            require(allowance[src][msg.sender] >= wad);\n            allowance[src][msg.sender] -= wad;\n        }\n\n        balanceOf[src] -= wad;\n        balanceOf[dst] += wad;\n\n        emit Transfer(src, dst, wad);\n\n        return true;\n    }\n}\n\n",
  "sourcePath": "/Users/mahdithg/Desktop/hamidkrimi/smart-contracts/periphery/contracts/WMATIC.sol",
  "compiler": {
    "name": "solc",
    "version": "0.6.12+commit.27d51765.Emscripten.clang"
  },
  "schemaVersion": "3.4.4",
  "updatedAt": "2022-02-21T09:19:48.250Z",
  "devdoc": {
    "kind": "dev",
    "methods": {},
    "version": 1
  },
  "userdoc": {
    "kind": "user",
    "methods": {},
    "version": 1
  }
}